{
  "_format": "hh-sol-artifact-1",
  "contractName": "CampaignFactory",
  "sourceName": "contracts/CampaignFactory.sol",
  "abi": [
    {
      "anonymous": false,
      "inputs": [
        {
          "indexed": false,
          "internalType": "address",
          "name": "campaignAddress",
          "type": "address"
        },
        {
          "indexed": false,
          "internalType": "address",
          "name": "creator",
          "type": "address"
        }
      ],
      "name": "CampaignCreated",
      "type": "event"
    },
    {
      "inputs": [
        {
          "internalType": "uint256",
          "name": "",
          "type": "uint256"
        }
      ],
      "name": "campaignMetadata",
      "outputs": [
        {
          "internalType": "uint256",
          "name": "durationInMinutes",
          "type": "uint256"
        },
        {
          "internalType": "string",
          "name": "campaignName",
          "type": "string"
        },
        {
          "internalType": "string",
          "name": "campaignDescription",
          "type": "string"
        },
        {
          "internalType": "uint256",
          "name": "startTime",
          "type": "uint256"
        },
        {
          "internalType": "string",
          "name": "date",
          "type": "string"
        },
        {
          "internalType": "uint256",
          "name": "campaignId",
          "type": "uint256"
        }
      ],
      "stateMutability": "view",
      "type": "function"
    },
    {
      "inputs": [
        {
          "internalType": "string[]",
          "name": "_candidateNames",
          "type": "string[]"
        },
        {
          "internalType": "uint256",
          "name": "_durationInMinutes",
          "type": "uint256"
        },
        {
          "internalType": "string",
          "name": "_campaign_name",
          "type": "string"
        },
        {
          "internalType": "string",
          "name": "_campaign_description",
          "type": "string"
        },
        {
          "internalType": "uint256",
          "name": "startTime",
          "type": "uint256"
        },
        {
          "internalType": "string",
          "name": "date",
          "type": "string"
        },
        {
          "internalType": "address[]",
          "name": "_eligible",
          "type": "address[]"
        },
        {
          "internalType": "bool",
          "name": "type_",
          "type": "bool"
        }
      ],
      "name": "createCampaign",
      "outputs": [],
      "stateMutability": "nonpayable",
      "type": "function"
    },
    {
      "inputs": [
        {
          "internalType": "uint256",
          "name": "",
          "type": "uint256"
        }
      ],
      "name": "deployedCampaigns",
      "outputs": [
        {
          "internalType": "contract Campaign",
          "name": "",
          "type": "address"
        }
      ],
      "stateMutability": "view",
      "type": "function"
    },
    {
      "inputs": [],
      "name": "getAllCampaigns",
      "outputs": [
        {
          "components": [
            {
              "internalType": "uint256",
              "name": "durationInMinutes",
              "type": "uint256"
            },
            {
              "internalType": "string",
              "name": "campaignName",
              "type": "string"
            },
            {
              "internalType": "string",
              "name": "campaignDescription",
              "type": "string"
            },
            {
              "internalType": "uint256",
              "name": "startTime",
              "type": "uint256"
            },
            {
              "internalType": "string",
              "name": "date",
              "type": "string"
            },
            {
              "internalType": "uint256",
              "name": "campaignId",
              "type": "uint256"
            }
          ],
          "internalType": "struct CampaignFactory.CampaignMetadata[]",
          "name": "",
          "type": "tuple[]"
        }
      ],
      "stateMutability": "view",
      "type": "function"
    },
    {
      "inputs": [
        {
          "internalType": "uint256",
          "name": "_campaignId",
          "type": "uint256"
        }
      ],
      "name": "getCampaignAddressById",
      "outputs": [
        {
          "internalType": "address",
          "name": "",
          "type": "address"
        }
      ],
      "stateMutability": "view",
      "type": "function"
    },
    {
      "inputs": [
        {
          "internalType": "uint256",
          "name": "_campaignId",
          "type": "uint256"
        }
      ],
      "name": "getCampaignById",
      "outputs": [
        {
          "components": [
            {
              "internalType": "uint256",
              "name": "durationInMinutes",
              "type": "uint256"
            },
            {
              "internalType": "string",
              "name": "campaignName",
              "type": "string"
            },
            {
              "internalType": "string",
              "name": "campaignDescription",
              "type": "string"
            },
            {
              "internalType": "uint256",
              "name": "startTime",
              "type": "uint256"
            },
            {
              "internalType": "string",
              "name": "date",
              "type": "string"
            },
            {
              "internalType": "uint256",
              "name": "campaignId",
              "type": "uint256"
            }
          ],
          "internalType": "struct CampaignFactory.CampaignMetadata",
          "name": "",
          "type": "tuple"
        }
      ],
      "stateMutability": "view",
      "type": "function"
    },
    {
      "inputs": [],
      "name": "getCampaignCount",
      "outputs": [
        {
          "internalType": "uint256",
          "name": "",
          "type": "uint256"
        }
      ],
      "stateMutability": "view",
      "type": "function"
    },
    {
      "inputs": [
        {
          "internalType": "address",
          "name": "voter",
          "type": "address"
        }
      ],
      "name": "getCampaignsForVoter",
      "outputs": [
        {
          "internalType": "address[]",
          "name": "",
          "type": "address[]"
        }
      ],
      "stateMutability": "view",
      "type": "function"
    },
    {
      "inputs": [],
      "name": "getDeployedCampaigns",
      "outputs": [
        {
          "internalType": "contract Campaign[]",
          "name": "",
          "type": "address[]"
        }
      ],
      "stateMutability": "view",
      "type": "function"
    }
  ],
  "bytecode": "0x6080604052600060025534801561001557600080fd5b50615289806100256000396000f3fe60806040523480156200001157600080fd5b5060043610620000a05760003560e01c8063606965c6116200006f578063606965c614620001695780636caa921814620001a4578063758dd15414620001c657806386cdf60414620001e6578063e6ffcaa1146200020857620000a0565b8063059b5a2a14620000a5578063339d50a514620000db5780634acb9d4f14620001115780635e8c25e21462000133575b600080fd5b620000c36004803603810190620000bd9190620012fe565b6200023e565b604051620000d29190620013fe565b60405180910390f35b620000f96004803603810190620000f391906200145d565b62000834565b604051620001089190620014fa565b60405180910390f35b6200011b62000874565b6040516200012a9190620015d4565b60405180910390f35b6200015160048036038101906200014b91906200145d565b62000904565b60405162000160919062001609565b60405180910390f35b6200018760048036038101906200018191906200145d565b62000998565b6040516200019b96959493929190620016d1565b60405180910390f35b620001ae62000b95565b604051620001bd919062001753565b60405180910390f35b620001e46004803603810190620001de919062001ad0565b62000ba1565b005b620001f062000d7d565b604051620001ff919062001e0a565b60405180910390f35b6200022660048036038101906200022091906200145d565b62000fca565b60405162000235919062001ed1565b60405180910390f35b60606000805b600080549050811015620004c2576000818154811062000269576200026862001ef5565b5b9060005260206000200160009054906101000a900473ffffffffffffffffffffffffffffffffffffffff1673ffffffffffffffffffffffffffffffffffffffff16634225e7f4856040518263ffffffff1660e01b8152600401620002ce919062001609565b602060405180830381865afa158015620002ec573d6000803e3d6000fd5b505050506040513d601f19601f8201168201806040525081019062000312919062001f3b565b80620003da57506000818154811062000330576200032f62001ef5565b5b9060005260206000200160009054906101000a900473ffffffffffffffffffffffffffffffffffffffff1673ffffffffffffffffffffffffffffffffffffffff16632f54bf6e856040518263ffffffff1660e01b815260040162000395919062001609565b602060405180830381865afa158015620003b3573d6000803e3d6000fd5b505050506040513d601f19601f82011682018060405250810190620003d9919062001f3b565b5b8062000495575060008181548110620003f857620003f762001ef5565b5b9060005260206000200160009054906101000a900473ffffffffffffffffffffffffffffffffffffffff1673ffffffffffffffffffffffffffffffffffffffff1663dc9a15356040518163ffffffff1660e01b8152600401602060405180830381865afa1580156200046e573d6000803e3d6000fd5b505050506040513d601f19601f8201168201806040525081019062000494919062001f3b565b5b15620004ac578180620004a89062001f9c565b9250505b8080620004b99062001f9c565b91505062000244565b5060008167ffffffffffffffff811115620004e257620004e162001775565b5b604051908082528060200260200182016040528015620005115781602001602082028036833780820191505090505b5090506000805b6000805490508110156200082857600081815481106200053d576200053c62001ef5565b5b9060005260206000200160009054906101000a900473ffffffffffffffffffffffffffffffffffffffff1673ffffffffffffffffffffffffffffffffffffffff16634225e7f4876040518263ffffffff1660e01b8152600401620005a2919062001609565b602060405180830381865afa158015620005c0573d6000803e3d6000fd5b505050506040513d601f19601f82011682018060405250810190620005e6919062001f3b565b80620006ae57506000818154811062000604576200060362001ef5565b5b9060005260206000200160009054906101000a900473ffffffffffffffffffffffffffffffffffffffff1673ffffffffffffffffffffffffffffffffffffffff16632f54bf6e876040518263ffffffff1660e01b815260040162000669919062001609565b602060405180830381865afa15801562000687573d6000803e3d6000fd5b505050506040513d601f19601f82011682018060405250810190620006ad919062001f3b565b5b8062000769575060008181548110620006cc57620006cb62001ef5565b5b9060005260206000200160009054906101000a900473ffffffffffffffffffffffffffffffffffffffff1673ffffffffffffffffffffffffffffffffffffffff1663dc9a15356040518163ffffffff1660e01b8152600401602060405180830381865afa15801562000742573d6000803e3d6000fd5b505050506040513d601f19601f8201168201806040525081019062000768919062001f3b565b5b1562000812576000818154811062000786576200078562001ef5565b5b9060005260206000200160009054906101000a900473ffffffffffffffffffffffffffffffffffffffff16838381518110620007c757620007c662001ef5565b5b602002602001019073ffffffffffffffffffffffffffffffffffffffff16908173ffffffffffffffffffffffffffffffffffffffff168152505081806200080e9062001f9c565b9250505b80806200081f9062001f9c565b91505062000518565b50819350505050919050565b600081815481106200084557600080fd5b906000526020600020016000915054906101000a900473ffffffffffffffffffffffffffffffffffffffff1681565b60606000805480602002602001604051908101604052809291908181526020018280548015620008fa57602002820191906000526020600020905b8160009054906101000a900473ffffffffffffffffffffffffffffffffffffffff1673ffffffffffffffffffffffffffffffffffffffff1681526020019060010190808311620008af575b5050505050905090565b6000808054905082106200094f576040517f08c379a0000000000000000000000000000000000000000000000000000000008152600401620009469062002039565b60405180910390fd5b6000828154811062000966576200096562001ef5565b5b9060005260206000200160009054906101000a900473ffffffffffffffffffffffffffffffffffffffff169050919050565b60018181548110620009a957600080fd5b9060005260206000209060060201600091509050806000015490806001018054620009d4906200208a565b80601f016020809104026020016040519081016040528092919081815260200182805462000a02906200208a565b801562000a535780601f1062000a275761010080835404028352916020019162000a53565b820191906000526020600020905b81548152906001019060200180831162000a3557829003601f168201915b50505050509080600201805462000a6a906200208a565b80601f016020809104026020016040519081016040528092919081815260200182805462000a98906200208a565b801562000ae95780601f1062000abd5761010080835404028352916020019162000ae9565b820191906000526020600020905b81548152906001019060200180831162000acb57829003601f168201915b50505050509080600301549080600401805462000b06906200208a565b80601f016020809104026020016040519081016040528092919081815260200182805462000b34906200208a565b801562000b855780601f1062000b595761010080835404028352916020019162000b85565b820191906000526020600020905b81548152906001019060200180831162000b6757829003601f168201915b5050505050908060050154905086565b60008080549050905090565b60008888336002548a8a8a8a8a8a60405162000bbd9062001241565b62000bd29a99989796959493929190620021a0565b604051809103906000f08015801562000bef573d6000803e3d6000fd5b50905060006040518060c001604052808a815260200189815260200188815260200187815260200186815260200160025481525090506002600081548092919062000c3a9062001f9c565b91905055506000829080600181540180825580915050600190039060005260206000200160009091909190916101000a81548173ffffffffffffffffffffffffffffffffffffffff021916908373ffffffffffffffffffffffffffffffffffffffff160217905550600181908060018154018082558091505060019003906000526020600020906006020160009091909190915060008201518160000155602082015181600101908162000cef91906200243b565b50604082015181600201908162000d0791906200243b565b5060608201518160030155608082015181600401908162000d2991906200243b565b5060a0820151816005015550507f6056366dba45431fd6a8854ad9f2594942b02c4f2c3f6fbc329b3079b027b8b4823360405162000d6992919062002522565b60405180910390a150505050505050505050565b60606001805480602002602001604051908101604052809291908181526020016000905b8282101562000fc157838290600052602060002090600602016040518060c00160405290816000820154815260200160018201805462000de1906200208a565b80601f016020809104026020016040519081016040528092919081815260200182805462000e0f906200208a565b801562000e605780601f1062000e345761010080835404028352916020019162000e60565b820191906000526020600020905b81548152906001019060200180831162000e4257829003601f168201915b5050505050815260200160028201805462000e7b906200208a565b80601f016020809104026020016040519081016040528092919081815260200182805462000ea9906200208a565b801562000efa5780601f1062000ece5761010080835404028352916020019162000efa565b820191906000526020600020905b81548152906001019060200180831162000edc57829003601f168201915b505050505081526020016003820154815260200160048201805462000f1f906200208a565b80601f016020809104026020016040519081016040528092919081815260200182805462000f4d906200208a565b801562000f9e5780601f1062000f725761010080835404028352916020019162000f9e565b820191906000526020600020905b81548152906001019060200180831162000f8057829003601f168201915b505050505081526020016005820154815250508152602001906001019062000da1565b50505050905090565b62000fd46200124f565b60018054905082106200101e576040517f08c379a0000000000000000000000000000000000000000000000000000000008152600401620010159062002039565b60405180910390fd5b6001828154811062001035576200103462001ef5565b5b90600052602060002090600602016040518060c0016040529081600082015481526020016001820180546200106a906200208a565b80601f016020809104026020016040519081016040528092919081815260200182805462001098906200208a565b8015620010e95780601f10620010bd57610100808354040283529160200191620010e9565b820191906000526020600020905b815481529060010190602001808311620010cb57829003601f168201915b5050505050815260200160028201805462001104906200208a565b80601f016020809104026020016040519081016040528092919081815260200182805462001132906200208a565b8015620011835780601f10620011575761010080835404028352916020019162001183565b820191906000526020600020905b8154815290600101906020018083116200116557829003601f168201915b5050505050815260200160038201548152602001600482018054620011a8906200208a565b80601f0160208091040260200160405190810160405280929190818152602001828054620011d6906200208a565b8015620012275780601f10620011fb5761010080835404028352916020019162001227565b820191906000526020600020905b8154815290600101906020018083116200120957829003601f168201915b505050505081526020016005820154815250509050919050565b612d04806200255083390190565b6040518060c001604052806000815260200160608152602001606081526020016000815260200160608152602001600081525090565b6000604051905090565b600080fd5b600080fd5b600073ffffffffffffffffffffffffffffffffffffffff82169050919050565b6000620012c68262001299565b9050919050565b620012d881620012b9565b8114620012e457600080fd5b50565b600081359050620012f881620012cd565b92915050565b6000602082840312156200131757620013166200128f565b5b60006200132784828501620012e7565b91505092915050565b600081519050919050565b600082825260208201905092915050565b6000819050602082019050919050565b6200136781620012b9565b82525050565b60006200137b83836200135c565b60208301905092915050565b6000602082019050919050565b6000620013a18262001330565b620013ad81856200133b565b9350620013ba836200134c565b8060005b83811015620013f1578151620013d588826200136d565b9750620013e28362001387565b925050600181019050620013be565b5085935050505092915050565b600060208201905081810360008301526200141a818462001394565b905092915050565b6000819050919050565b620014378162001422565b81146200144357600080fd5b50565b60008135905062001457816200142c565b92915050565b6000602082840312156200147657620014756200128f565b5b6000620014868482850162001446565b91505092915050565b6000819050919050565b6000620014ba620014b4620014ae8462001299565b6200148f565b62001299565b9050919050565b6000620014ce8262001499565b9050919050565b6000620014e282620014c1565b9050919050565b620014f481620014d5565b82525050565b6000602082019050620015116000830184620014e9565b92915050565b600081519050919050565b6000819050602082019050919050565b6200153d81620014d5565b82525050565b600062001551838362001532565b60208301905092915050565b6000602082019050919050565b6000620015778262001517565b6200158381856200133b565b9350620015908362001522565b8060005b83811015620015c7578151620015ab888262001543565b9750620015b8836200155d565b92505060018101905062001594565b5085935050505092915050565b60006020820190508181036000830152620015f081846200156a565b905092915050565b6200160381620012b9565b82525050565b6000602082019050620016206000830184620015f8565b92915050565b620016318162001422565b82525050565b600081519050919050565b600082825260208201905092915050565b60005b838110156200167357808201518184015260208101905062001656565b60008484015250505050565b6000601f19601f8301169050919050565b60006200169d8262001637565b620016a9818562001642565b9350620016bb81856020860162001653565b620016c6816200167f565b840191505092915050565b600060c082019050620016e8600083018962001626565b8181036020830152620016fc818862001690565b9050818103604083015262001712818762001690565b905062001723606083018662001626565b818103608083015262001737818562001690565b90506200174860a083018462001626565b979650505050505050565b60006020820190506200176a600083018462001626565b92915050565b600080fd5b7f4e487b7100000000000000000000000000000000000000000000000000000000600052604160045260246000fd5b620017af826200167f565b810181811067ffffffffffffffff82111715620017d157620017d062001775565b5b80604052505050565b6000620017e662001285565b9050620017f48282620017a4565b919050565b600067ffffffffffffffff82111562001817576200181662001775565b5b602082029050602081019050919050565b600080fd5b600080fd5b600067ffffffffffffffff82111562001850576200184f62001775565b5b6200185b826200167f565b9050602081019050919050565b82818337600083830152505050565b60006200188e620018888462001832565b620017da565b905082815260208101848484011115620018ad57620018ac6200182d565b5b620018ba84828562001868565b509392505050565b600082601f830112620018da57620018d962001770565b5b8135620018ec84826020860162001877565b91505092915050565b60006200190c6200190684620017f9565b620017da565b9050808382526020820190506020840283018581111562001932576200193162001828565b5b835b818110156200198057803567ffffffffffffffff8111156200195b576200195a62001770565b5b8086016200196a8982620018c2565b8552602085019450505060208101905062001934565b5050509392505050565b600082601f830112620019a257620019a162001770565b5b8135620019b4848260208601620018f5565b91505092915050565b600067ffffffffffffffff821115620019db57620019da62001775565b5b602082029050602081019050919050565b600062001a03620019fd84620019bd565b620017da565b9050808382526020820190506020840283018581111562001a295762001a2862001828565b5b835b8181101562001a56578062001a418882620012e7565b84526020840193505060208101905062001a2b565b5050509392505050565b600082601f83011262001a785762001a7762001770565b5b813562001a8a848260208601620019ec565b91505092915050565b60008115159050919050565b62001aaa8162001a93565b811462001ab657600080fd5b50565b60008135905062001aca8162001a9f565b92915050565b600080600080600080600080610100898b03121562001af45762001af36200128f565b5b600089013567ffffffffffffffff81111562001b155762001b1462001294565b5b62001b238b828c016200198a565b985050602062001b368b828c0162001446565b975050604089013567ffffffffffffffff81111562001b5a5762001b5962001294565b5b62001b688b828c01620018c2565b965050606089013567ffffffffffffffff81111562001b8c5762001b8b62001294565b5b62001b9a8b828c01620018c2565b955050608062001bad8b828c0162001446565b94505060a089013567ffffffffffffffff81111562001bd15762001bd062001294565b5b62001bdf8b828c01620018c2565b93505060c089013567ffffffffffffffff81111562001c035762001c0262001294565b5b62001c118b828c0162001a60565b92505060e062001c248b828c0162001ab9565b9150509295985092959890939650565b600081519050919050565b600082825260208201905092915050565b6000819050602082019050919050565b62001c6b8162001422565b82525050565b600082825260208201905092915050565b600062001c8f8262001637565b62001c9b818562001c71565b935062001cad81856020860162001653565b62001cb8816200167f565b840191505092915050565b600060c08301600083015162001cdd600086018262001c60565b506020830151848203602086015262001cf7828262001c82565b9150506040830151848203604086015262001d13828262001c82565b915050606083015162001d2a606086018262001c60565b506080830151848203608086015262001d44828262001c82565b91505060a083015162001d5b60a086018262001c60565b508091505092915050565b600062001d74838362001cc3565b905092915050565b6000602082019050919050565b600062001d968262001c34565b62001da2818562001c3f565b93508360208202850162001db68562001c50565b8060005b8581101562001df8578484038952815162001dd6858262001d66565b945062001de38362001d7c565b925060208a0199505060018101905062001dba565b50829750879550505050505092915050565b6000602082019050818103600083015262001e26818462001d89565b905092915050565b600060c08301600083015162001e48600086018262001c60565b506020830151848203602086015262001e62828262001c82565b9150506040830151848203604086015262001e7e828262001c82565b915050606083015162001e95606086018262001c60565b506080830151848203608086015262001eaf828262001c82565b91505060a083015162001ec660a086018262001c60565b508091505092915050565b6000602082019050818103600083015262001eed818462001e2e565b905092915050565b7f4e487b7100000000000000000000000000000000000000000000000000000000600052603260045260246000fd5b60008151905062001f358162001a9f565b92915050565b60006020828403121562001f545762001f536200128f565b5b600062001f648482850162001f24565b91505092915050565b7f4e487b7100000000000000000000000000000000000000000000000000000000600052601160045260246000fd5b600062001fa98262001422565b91507fffffffffffffffffffffffffffffffffffffffffffffffffffffffffffffffff820362001fde5762001fdd62001f6d565b5b600182019050919050565b7f496e76616c69642063616d706169676e20494400000000000000000000000000600082015250565b60006200202160138362001642565b91506200202e8262001fe9565b602082019050919050565b60006020820190508181036000830152620020548162002012565b9050919050565b7f4e487b7100000000000000000000000000000000000000000000000000000000600052602260045260246000fd5b60006002820490506001821680620020a357607f821691505b602082108103620020b957620020b86200205b565b5b50919050565b600081519050919050565b600082825260208201905092915050565b6000819050602082019050919050565b6000620020f9838362001c82565b905092915050565b6000602082019050919050565b60006200211b82620020bf565b620021278185620020ca565b9350836020820285016200213b85620020db565b8060005b858110156200217d57848403895281516200215b8582620020eb565b9450620021688362002101565b925060208a019950506001810190506200213f565b50829750879550505050505092915050565b6200219a8162001a93565b82525050565b6000610140820190508181036000830152620021bd818d6200210e565b9050620021ce602083018c62001626565b620021dd604083018b620015f8565b620021ec606083018a62001626565b818103608083015262002200818962001690565b905081810360a083015262002216818862001690565b90506200222760c083018762001626565b81810360e08301526200223b818662001690565b905081810361010083015262002252818562001394565b9050620022646101208301846200218f565b9b9a5050505050505050505050565b60008190508160005260206000209050919050565b60006020601f8301049050919050565b600082821b905092915050565b600060088302620022d77fffffffffffffffffffffffffffffffffffffffffffffffffffffffffffffffff8262002298565b620022e3868362002298565b95508019841693508086168417925050509392505050565b60006200231c62002316620023108462001422565b6200148f565b62001422565b9050919050565b6000819050919050565b6200233883620022fb565b62002350620023478262002323565b848454620022a5565b825550505050565b600090565b6200236762002358565b620023748184846200232d565b505050565b5b818110156200239c57620023906000826200235d565b6001810190506200237a565b5050565b601f821115620023eb57620023b58162002273565b620023c08462002288565b81016020851015620023d0578190505b620023e8620023df8562002288565b83018262002379565b50505b505050565b600082821c905092915050565b60006200241060001984600802620023f0565b1980831691505092915050565b60006200242b8383620023fd565b9150826002028217905092915050565b620024468262001637565b67ffffffffffffffff81111562002462576200246162001775565b5b6200246e82546200208a565b6200247b828285620023a0565b600060209050601f831160018114620024b357600084156200249e578287015190505b620024aa85826200241d565b8655506200251a565b601f198416620024c38662002273565b60005b82811015620024ed57848901518255600182019150602085019450602081019050620024c6565b868310156200250d578489015162002509601f891682620023fd565b8355505b6001600288020188555050505b505050505050565b6000604082019050620025396000830185620015f8565b620025486020830184620015f8565b939250505056fe608060405260006005556040518060400160405280600d81526020017f43616d706169676e204e616d6500000000000000000000000000000000000000815250600690816200004f9190620005ff565b506040518060400160405280601481526020017f43616d706169676e204465736372697074696f6e00000000000000000000000081525060079081620000969190620005ff565b5060006008556040518060400160405280600481526020017f446174650000000000000000000000000000000000000000000000000000000081525060099081620000e29190620005ff565b50348015620000f057600080fd5b5060405162002d0438038062002d04833981810160405281019062000116919062000aef565b60005b8a51811015620001bb57600060405180604001604052808d848151811062000146576200014562000c80565b5b60200260200101518152602001600081525090806001815401808255809150506001900390600052602060002090600202016000909190919091506000820151816000019081620001989190620005ff565b506020820151816001015550508080620001b29062000cde565b91505062000119565b50866005819055508560069081620001d49190620005ff565b508460079081620001e69190620005ff565b508860088190555087600160006101000a81548173ffffffffffffffffffffffffffffffffffffffff021916908373ffffffffffffffffffffffffffffffffffffffff16021790555083600381905550603c8962000245919062000d2b565b8462000252919062000d76565b6004819055508260099081620002699190620005ff565b506001600260008a73ffffffffffffffffffffffffffffffffffffffff1673ffffffffffffffffffffffffffffffffffffffff16815260200190815260200160002060006101000a81548160ff02191690831515021790555060005b82518110156200035a576001600a6000858481518110620002eb57620002ea62000c80565b5b602002602001015173ffffffffffffffffffffffffffffffffffffffff1673ffffffffffffffffffffffffffffffffffffffff16815260200190815260200160002060006101000a81548160ff0219169083151502179055508080620003519062000cde565b915050620002c5565b5080600b60006101000a81548160ff0219169083151502179055505050505050505050505062000db1565b600081519050919050565b7f4e487b7100000000000000000000000000000000000000000000000000000000600052604160045260246000fd5b7f4e487b7100000000000000000000000000000000000000000000000000000000600052602260045260246000fd5b600060028204905060018216806200040757607f821691505b6020821081036200041d576200041c620003bf565b5b50919050565b60008190508160005260206000209050919050565b60006020601f8301049050919050565b600082821b905092915050565b600060088302620004877fffffffffffffffffffffffffffffffffffffffffffffffffffffffffffffffff8262000448565b62000493868362000448565b95508019841693508086168417925050509392505050565b6000819050919050565b6000819050919050565b6000620004e0620004da620004d484620004ab565b620004b5565b620004ab565b9050919050565b6000819050919050565b620004fc83620004bf565b620005146200050b82620004e7565b84845462000455565b825550505050565b600090565b6200052b6200051c565b62000538818484620004f1565b505050565b5b8181101562000560576200055460008262000521565b6001810190506200053e565b5050565b601f821115620005af57620005798162000423565b620005848462000438565b8101602085101562000594578190505b620005ac620005a38562000438565b8301826200053d565b50505b505050565b600082821c905092915050565b6000620005d460001984600802620005b4565b1980831691505092915050565b6000620005ef8383620005c1565b9150826002028217905092915050565b6200060a8262000385565b67ffffffffffffffff81111562000626576200062562000390565b5b620006328254620003ee565b6200063f82828562000564565b600060209050601f83116001811462000677576000841562000662578287015190505b6200066e8582620005e1565b865550620006de565b601f198416620006878662000423565b60005b82811015620006b1578489015182556001820191506020850194506020810190506200068a565b86831015620006d15784890151620006cd601f891682620005c1565b8355505b6001600288020188555050505b505050505050565b6000604051905090565b600080fd5b600080fd5b600080fd5b6000601f19601f8301169050919050565b6200071b82620006ff565b810181811067ffffffffffffffff821117156200073d576200073c62000390565b5b80604052505050565b600062000752620006e6565b905062000760828262000710565b919050565b600067ffffffffffffffff82111562000783576200078262000390565b5b602082029050602081019050919050565b600080fd5b600080fd5b600067ffffffffffffffff821115620007bc57620007bb62000390565b5b620007c782620006ff565b9050602081019050919050565b60005b83811015620007f4578082015181840152602081019050620007d7565b60008484015250505050565b60006200081762000811846200079e565b62000746565b90508281526020810184848401111562000836576200083562000799565b5b62000843848285620007d4565b509392505050565b600082601f830112620008635762000862620006fa565b5b81516200087584826020860162000800565b91505092915050565b6000620008956200088f8462000765565b62000746565b90508083825260208201905060208402830185811115620008bb57620008ba62000794565b5b835b818110156200090957805167ffffffffffffffff811115620008e457620008e3620006fa565b5b808601620008f389826200084b565b85526020850194505050602081019050620008bd565b5050509392505050565b600082601f8301126200092b576200092a620006fa565b5b81516200093d8482602086016200087e565b91505092915050565b6200095181620004ab565b81146200095d57600080fd5b50565b600081519050620009718162000946565b92915050565b600073ffffffffffffffffffffffffffffffffffffffff82169050919050565b6000620009a48262000977565b9050919050565b620009b68162000997565b8114620009c257600080fd5b50565b600081519050620009d681620009ab565b92915050565b600067ffffffffffffffff821115620009fa57620009f962000390565b5b602082029050602081019050919050565b600062000a2262000a1c84620009dc565b62000746565b9050808382526020820190506020840283018581111562000a485762000a4762000794565b5b835b8181101562000a75578062000a608882620009c5565b84526020840193505060208101905062000a4a565b5050509392505050565b600082601f83011262000a975762000a96620006fa565b5b815162000aa984826020860162000a0b565b91505092915050565b60008115159050919050565b62000ac98162000ab2565b811462000ad557600080fd5b50565b60008151905062000ae98162000abe565b92915050565b6000806000806000806000806000806101408b8d03121562000b165762000b15620006f0565b5b60008b015167ffffffffffffffff81111562000b375762000b36620006f5565b5b62000b458d828e0162000913565b9a5050602062000b588d828e0162000960565b995050604062000b6b8d828e01620009c5565b985050606062000b7e8d828e0162000960565b97505060808b015167ffffffffffffffff81111562000ba25762000ba1620006f5565b5b62000bb08d828e016200084b565b96505060a08b015167ffffffffffffffff81111562000bd45762000bd3620006f5565b5b62000be28d828e016200084b565b95505060c062000bf58d828e0162000960565b94505060e08b015167ffffffffffffffff81111562000c195762000c18620006f5565b5b62000c278d828e016200084b565b9350506101008b015167ffffffffffffffff81111562000c4c5762000c4b620006f5565b5b62000c5a8d828e0162000a7f565b92505061012062000c6e8d828e0162000ad8565b9150509295989b9194979a5092959850565b7f4e487b7100000000000000000000000000000000000000000000000000000000600052603260045260246000fd5b7f4e487b7100000000000000000000000000000000000000000000000000000000600052601160045260246000fd5b600062000ceb82620004ab565b91507fffffffffffffffffffffffffffffffffffffffffffffffffffffffffffffffff820362000d205762000d1f62000caf565b5b600182019050919050565b600062000d3882620004ab565b915062000d4583620004ab565b925082820262000d5581620004ab565b9150828204841483151762000d6f5762000d6e62000caf565b5b5092915050565b600062000d8382620004ab565b915062000d9083620004ab565b925082820190508082111562000dab5762000daa62000caf565b5b92915050565b611f438062000dc16000396000f3fe608060405234801561001057600080fd5b50600436106101fb5760003560e01c806374d8c6431161011a578063ac0a42fd116100ad578063c828371e1161007c578063c828371e146105b2578063cbff75cb146105d0578063d85b270414610600578063dc9a15351461061e578063efb98bcf1461063c576101fb565b8063ac0a42fd1461053a578063bb9aa28f14610558578063c094f58514610576578063c0f2a77714610594576101fb565b8063885e7c62116100e9578063885e7c62146104b05780638da5cb5b146104ce57806390a9ab90146104ec578063a3ec138d1461050a576101fb565b806374d8c643146104385780637bc25483146104565780637cd9eb4b1461047457806385a3863514610492576101fb565b80633477ee2e11610192578063439f5ac211610161578063439f5ac2146103c2578063462e91ec146103e0578063581c281c146103fc5780635e06280b1461041a576101fb565b80633477ee2e1461031257806335b8e820146103435780634137e733146103745780634225e7f414610392576101fb565b8063101158af116101ce578063101158af1461028857806315dae03e146102a65780632f54bf6e146102c4578063323046b1146102f4576101fb565b80630121b93f14610200578063040983381461021c5780630574f5901461023a5780630713b13914610258575b600080fd5b61021a6004803603810190610215919061132e565b61065a565b005b6102246108ab565b604051610231919061136a565b60405180910390f35b6102426108b1565b60405161024f9190611415565b60405180910390f35b610272600480360381019061026d9190611495565b61093f565b60405161027f91906114dd565b60405180910390f35b61029061095f565b60405161029d919061136a565b60405180910390f35b6102ae610965565b6040516102bb91906114dd565b60405180910390f35b6102de60048036038101906102d99190611495565b61097c565b6040516102eb91906114dd565b60405180910390f35b6102fc6109d6565b6040516103099190611415565b60405180910390f35b61032c6004803603810190610327919061132e565b610a64565b60405161033a9291906114f8565b60405180910390f35b61035d6004803603810190610358919061132e565b610b20565b60405161036b9291906114f8565b60405180910390f35b61037c610c4a565b6040516103899190611415565b60405180910390f35b6103ac60048036038101906103a79190611495565b610cd8565b6040516103b991906114dd565b60405180910390f35b6103ca610d2e565b6040516103d7919061136a565b60405180910390f35b6103fa60048036038101906103f5919061165d565b610d38565b005b610404610e2e565b60405161041191906114dd565b60405180910390f35b610422610e48565b60405161042f91906116b5565b60405180910390f35b610440610e72565b60405161044d9190611415565b60405180910390f35b61045e610f04565b60405161046b919061136a565b60405180910390f35b61047c610f0e565b6040516104899190611415565b60405180910390f35b61049a610fa0565b6040516104a7919061136a565b60405180910390f35b6104b8610fa6565b6040516104c59190611415565b60405180910390f35b6104d6611038565b6040516104e391906116b5565b60405180910390f35b6104f461105e565b6040516105019190611828565b60405180910390f35b610524600480360381019061051f9190611495565b611159565b60405161053191906114dd565b60405180910390f35b610542611179565b60405161054f919061136a565b60405180910390f35b61056061117f565b60405161056d919061136a565b60405180910390f35b61057e61118b565b60405161058b919061136a565b60405180910390f35b61059c611195565b6040516105a9919061136a565b60405180910390f35b6105ba6111fa565b6040516105c7919061136a565b60405180910390f35b6105ea60048036038101906105e59190611495565b611204565b6040516105f791906114dd565b60405180910390f35b61060861125a565b60405161061591906114dd565b60405180910390f35b61062661126d565b60405161063391906114dd565b60405180910390f35b61064461129b565b604051610651919061136a565b60405180910390f35b60035442101561069f576040517f08c379a000000000000000000000000000000000000000000000000000000000815260040161069690611896565b60405180910390fd5b60045442106106e3576040517f08c379a00000000000000000000000000000000000000000000000000000000081526004016106da90611902565b60405180910390fd5b600260003373ffffffffffffffffffffffffffffffffffffffff1673ffffffffffffffffffffffffffffffffffffffff16815260200190815260200160002060009054906101000a900460ff1615610770576040517f08c379a00000000000000000000000000000000000000000000000000000000081526004016107679061196e565b60405180910390fd5b60008054905081106107b7576040517f08c379a00000000000000000000000000000000000000000000000000000000081526004016107ae906119da565b60405180910390fd5b600081815481106107cb576107ca6119fa565b5b906000526020600020906002020160010160008154809291906107ed90611a58565b91905055506001600260003373ffffffffffffffffffffffffffffffffffffffff1673ffffffffffffffffffffffffffffffffffffffff16815260200190815260200160002060006101000a81548160ff0219169083151502179055507fc31875ef3ed5138b71a0c1da7e494bc4d2ba4f567084ea481ec9c45f3a93948b81600083815481106108805761087f6119fa565b5b9060005260206000209060020201600101546040516108a0929190611aa0565b60405180910390a150565b60085481565b600780546108be90611af8565b80601f01602080910402602001604051908101604052809291908181526020018280546108ea90611af8565b80156109375780601f1061090c57610100808354040283529160200191610937565b820191906000526020600020905b81548152906001019060200180831161091a57829003601f168201915b505050505081565b600a6020528060005260406000206000915054906101000a900460ff1681565b60035481565b6000600b60009054906101000a900460ff16905090565b6000600160009054906101000a900473ffffffffffffffffffffffffffffffffffffffff1673ffffffffffffffffffffffffffffffffffffffff168273ffffffffffffffffffffffffffffffffffffffff16149050919050565b600980546109e390611af8565b80601f0160208091040260200160405190810160405280929190818152602001828054610a0f90611af8565b8015610a5c5780601f10610a3157610100808354040283529160200191610a5c565b820191906000526020600020905b815481529060010190602001808311610a3f57829003601f168201915b505050505081565b60008181548110610a7457600080fd5b9060005260206000209060020201600091509050806000018054610a9790611af8565b80601f0160208091040260200160405190810160405280929190818152602001828054610ac390611af8565b8015610b105780601f10610ae557610100808354040283529160200191610b10565b820191906000526020600020905b815481529060010190602001808311610af357829003601f168201915b5050505050908060010154905082565b6060600080805490508310610b6a576040517f08c379a0000000000000000000000000000000000000000000000000000000008152600401610b6190611b75565b60405180910390fd5b60008381548110610b7e57610b7d6119fa565b5b906000526020600020906002020160000160008481548110610ba357610ba26119fa565b5b906000526020600020906002020160010154818054610bc190611af8565b80601f0160208091040260200160405190810160405280929190818152602001828054610bed90611af8565b8015610c3a5780601f10610c0f57610100808354040283529160200191610c3a565b820191906000526020600020905b815481529060010190602001808311610c1d57829003601f168201915b5050505050915091509150915091565b60068054610c5790611af8565b80601f0160208091040260200160405190810160405280929190818152602001828054610c8390611af8565b8015610cd05780601f10610ca557610100808354040283529160200191610cd0565b820191906000526020600020905b815481529060010190602001808311610cb357829003601f168201915b505050505081565b6000600a60008373ffffffffffffffffffffffffffffffffffffffff1673ffffffffffffffffffffffffffffffffffffffff16815260200190815260200160002060009054906101000a900460ff169050919050565b6000600454905090565b600160009054906101000a900473ffffffffffffffffffffffffffffffffffffffff1673ffffffffffffffffffffffffffffffffffffffff163373ffffffffffffffffffffffffffffffffffffffff1614610dc8576040517f08c379a0000000000000000000000000000000000000000000000000000000008152600401610dbf90611c07565b60405180910390fd5b60006040518060400160405280838152602001600081525090806001815401808255809150506001900390600052602060002090600202016000909190919091506000820151816000019081610e1e9190611dd3565b5060208201518160010155505050565b60006003544210158015610e43575060045442105b905090565b6000600160009054906101000a900473ffffffffffffffffffffffffffffffffffffffff16905090565b606060078054610e8190611af8565b80601f0160208091040260200160405190810160405280929190818152602001828054610ead90611af8565b8015610efa5780601f10610ecf57610100808354040283529160200191610efa565b820191906000526020600020905b815481529060010190602001808311610edd57829003601f168201915b5050505050905090565b6000600854905090565b606060098054610f1d90611af8565b80601f0160208091040260200160405190810160405280929190818152602001828054610f4990611af8565b8015610f965780601f10610f6b57610100808354040283529160200191610f96565b820191906000526020600020905b815481529060010190602001808311610f7957829003601f168201915b5050505050905090565b60045481565b606060068054610fb590611af8565b80601f0160208091040260200160405190810160405280929190818152602001828054610fe190611af8565b801561102e5780601f106110035761010080835404028352916020019161102e565b820191906000526020600020905b81548152906001019060200180831161101157829003601f168201915b5050505050905090565b600160009054906101000a900473ffffffffffffffffffffffffffffffffffffffff1681565b60606000805480602002602001604051908101604052809291908181526020016000905b8282101561115057838290600052602060002090600202016040518060400160405290816000820180546110b590611af8565b80601f01602080910402602001604051908101604052809291908181526020018280546110e190611af8565b801561112e5780601f106111035761010080835404028352916020019161112e565b820191906000526020600020905b81548152906001019060200180831161111157829003601f168201915b5050505050815260200160018201548152505081526020019060010190611082565b50505050905090565b60026020528060005260406000206000915054906101000a900460ff1681565b60055481565b60008080549050905090565b6000600554905090565b6000806000905060005b6000805490508110156111f257600081815481106111c0576111bf6119fa565b5b906000526020600020906002020160010154826111dd9190611ea5565b915080806111ea90611a58565b91505061119f565b508091505090565b6000600354905090565b6000600260008373ffffffffffffffffffffffffffffffffffffffff1673ffffffffffffffffffffffffffffffffffffffff16815260200190815260200160002060009054906101000a900460ff169050919050565b600b60009054906101000a900460ff1681565b600060011515600b60009054906101000a900460ff161515036112935760019050611298565b600090505b90565b600060045442106112af57600090506112e1565b6003544210156112d0576003546004546112c99190611ed9565b90506112e1565b426004546112de9190611ed9565b90505b90565b6000604051905090565b600080fd5b600080fd5b6000819050919050565b61130b816112f8565b811461131657600080fd5b50565b60008135905061132881611302565b92915050565b600060208284031215611344576113436112ee565b5b600061135284828501611319565b91505092915050565b611364816112f8565b82525050565b600060208201905061137f600083018461135b565b92915050565b600081519050919050565b600082825260208201905092915050565b60005b838110156113bf5780820151818401526020810190506113a4565b60008484015250505050565b6000601f19601f8301169050919050565b60006113e782611385565b6113f18185611390565b93506114018185602086016113a1565b61140a816113cb565b840191505092915050565b6000602082019050818103600083015261142f81846113dc565b905092915050565b600073ffffffffffffffffffffffffffffffffffffffff82169050919050565b600061146282611437565b9050919050565b61147281611457565b811461147d57600080fd5b50565b60008135905061148f81611469565b92915050565b6000602082840312156114ab576114aa6112ee565b5b60006114b984828501611480565b91505092915050565b60008115159050919050565b6114d7816114c2565b82525050565b60006020820190506114f260008301846114ce565b92915050565b6000604082019050818103600083015261151281856113dc565b9050611521602083018461135b565b9392505050565b600080fd5b600080fd5b7f4e487b7100000000000000000000000000000000000000000000000000000000600052604160045260246000fd5b61156a826113cb565b810181811067ffffffffffffffff8211171561158957611588611532565b5b80604052505050565b600061159c6112e4565b90506115a88282611561565b919050565b600067ffffffffffffffff8211156115c8576115c7611532565b5b6115d1826113cb565b9050602081019050919050565b82818337600083830152505050565b60006116006115fb846115ad565b611592565b90508281526020810184848401111561161c5761161b61152d565b5b6116278482856115de565b509392505050565b600082601f83011261164457611643611528565b5b81356116548482602086016115ed565b91505092915050565b600060208284031215611673576116726112ee565b5b600082013567ffffffffffffffff811115611691576116906112f3565b5b61169d8482850161162f565b91505092915050565b6116af81611457565b82525050565b60006020820190506116ca60008301846116a6565b92915050565b600081519050919050565b600082825260208201905092915050565b6000819050602082019050919050565b600082825260208201905092915050565b600061171882611385565b61172281856116fc565b93506117328185602086016113a1565b61173b816113cb565b840191505092915050565b61174f816112f8565b82525050565b60006040830160008301518482036000860152611772828261170d565b91505060208301516117876020860182611746565b508091505092915050565b600061179e8383611755565b905092915050565b6000602082019050919050565b60006117be826116d0565b6117c881856116db565b9350836020820285016117da856116ec565b8060005b8581101561181657848403895281516117f78582611792565b9450611802836117a6565b925060208a019950506001810190506117de565b50829750879550505050505092915050565b6000602082019050818103600083015261184281846117b3565b905092915050565b7f566f74696e6720686173206e6f742073746172746564207965742e0000000000600082015250565b6000611880601b83611390565b915061188b8261184a565b602082019050919050565b600060208201905081810360008301526118af81611873565b9050919050565b7f566f74696e672068617320656e6465642e000000000000000000000000000000600082015250565b60006118ec601183611390565b91506118f7826118b6565b602082019050919050565b6000602082019050818103600083015261191b816118df565b9050919050565b7f596f75206861766520616c726561647920766f7465642e000000000000000000600082015250565b6000611958601783611390565b915061196382611922565b602082019050919050565b600060208201905081810360008301526119878161194b565b9050919050565b7f496e76616c69642063616e64696461746520696e6465782e0000000000000000600082015250565b60006119c4601883611390565b91506119cf8261198e565b602082019050919050565b600060208201905081810360008301526119f3816119b7565b9050919050565b7f4e487b7100000000000000000000000000000000000000000000000000000000600052603260045260246000fd5b7f4e487b7100000000000000000000000000000000000000000000000000000000600052601160045260246000fd5b6000611a63826112f8565b91507fffffffffffffffffffffffffffffffffffffffffffffffffffffffffffffffff8203611a9557611a94611a29565b5b600182019050919050565b6000604082019050611ab5600083018561135b565b611ac2602083018461135b565b9392505050565b7f4e487b7100000000000000000000000000000000000000000000000000000000600052602260045260246000fd5b60006002820490506001821680611b1057607f821691505b602082108103611b2357611b22611ac9565b5b50919050565b7f496e76616c696420696e64657800000000000000000000000000000000000000600082015250565b6000611b5f600d83611390565b9150611b6a82611b29565b602082019050919050565b60006020820190508181036000830152611b8e81611b52565b9050919050565b7f4f6e6c79206f776e65722063616e2063616c6c20746869732066756e6374696f60008201527f6e00000000000000000000000000000000000000000000000000000000000000602082015250565b6000611bf1602183611390565b9150611bfc82611b95565b604082019050919050565b60006020820190508181036000830152611c2081611be4565b9050919050565b60008190508160005260206000209050919050565b60006020601f8301049050919050565b600082821b905092915050565b600060088302611c897fffffffffffffffffffffffffffffffffffffffffffffffffffffffffffffffff82611c4c565b611c938683611c4c565b95508019841693508086168417925050509392505050565b6000819050919050565b6000611cd0611ccb611cc6846112f8565b611cab565b6112f8565b9050919050565b6000819050919050565b611cea83611cb5565b611cfe611cf682611cd7565b848454611c59565b825550505050565b600090565b611d13611d06565b611d1e818484611ce1565b505050565b5b81811015611d4257611d37600082611d0b565b600181019050611d24565b5050565b601f821115611d8757611d5881611c27565b611d6184611c3c565b81016020851015611d70578190505b611d84611d7c85611c3c565b830182611d23565b50505b505050565b600082821c905092915050565b6000611daa60001984600802611d8c565b1980831691505092915050565b6000611dc38383611d99565b9150826002028217905092915050565b611ddc82611385565b67ffffffffffffffff811115611df557611df4611532565b5b611dff8254611af8565b611e0a828285611d46565b600060209050601f831160018114611e3d5760008415611e2b578287015190505b611e358582611db7565b865550611e9d565b601f198416611e4b86611c27565b60005b82811015611e7357848901518255600182019150602085019450602081019050611e4e565b86831015611e905784890151611e8c601f891682611d99565b8355505b6001600288020188555050505b505050505050565b6000611eb0826112f8565b9150611ebb836112f8565b9250828201905080821115611ed357611ed2611a29565b5b92915050565b6000611ee4826112f8565b9150611eef836112f8565b9250828203905081811115611f0757611f06611a29565b5b9291505056fea2646970667358221220b1b448beda7744c86785ff13cd9b91d0c7dad45b4a96a739071e17951996f82564736f6c63430008110033a2646970667358221220aa8b8047cbcb2de5a732e99f355489786bb52d36e47b9f6d7e3b3d0b73a662bf64736f6c63430008110033",
  "linkReferences": {},
  "deployedLinkReferences": {}
}